:100000000C9456000C9458040C9458040C94580406
:100010000C941C040C9458040C9458040C9458042C
:100020000C9458040C9458040C9458040C945804E0
:100030000C9458040C9458040C9458040C945804D0
:100040000C9458040C9458040C9458040C945804C0
:100050000C9458040C9458040C9458040C945804B0
:100060000C9458040C9458040C9458040C945804A0
:100070000C9458040C9458040C9458040C94580490
:100080000C9458040C9458040C9458040C94580480
:100090000C9458040C9458040C9458040C94580470
:1000A0002800280880280828160008B811241FBE38
:1000B000CFEFCDBFDFE3DEBFE0EAF0E040E017C006
:1000C000B591A59135912591059107FD0CC09591AC
:1000D0008591EF01F92FE82F05900D92A217B30734
:1000E000D9F7FE0104C01D92A217B307E1F7EC3A5D
:1000F000F40731F70E9461020C947E00F894FFCF60
:10010000ABE0B0E0E6E8F0E00C94C0036C017B01EA
:100110008A01FC0116821782838181FFCCC1CE0146
:1001200001963C01F6019381F70193FD859193FFC0
:1001300081917F01882309F4BAC1853239F493FD96
:10014000859193FF81917F01853229F4B60190E07A
:100150000E943A03E7CF912C212C312CFFE1F315BB
:10016000D8F08B3279F038F4803279F08332A1F410
:10017000232D20611DC08D3261F0803369F4232D61
:10018000216016C0832D8260382EE32DE4603E2E60
:100190002AC0F32DF8601DC037FC2DC020ED280FBC
:1001A0002A3040F08E32B9F436FC81C1232D206410
:1001B000322E19C036FE06C08AE0989E200D11240A
:1001C000922E11C0EAE02E9E200D1124222EF32D36
:1001D000F0623F2E08C08C3621F4832D8068382EC3
:1001E00002C0883641F4F70193FD859193FF819118
:1001F0007F018111B3CF982F9F7D9554933028F4C0
:100200000C5F1F4F9FE399830DC0833631F0833716
:1002100071F0833509F059C021C0F80180818983CC
:100220000E5F1F4F88248394912C530113C0280123
:10023000F2E04F0E511CF801A080B18036FE03C0E1
:10024000692D70E002C06FEF7FEFC5010E94360498
:100250004C018201F32DFF773F2E16C0280122E0CA
:10026000420E511CF801A080B18036FE03C0692DFA
:1002700070E002C06FEF7FEFC5010E942B044C01BC
:10028000F32DF0683F2E820133FC1BC0822D90E0DD
:1002900088169906B0F4B60180E290E00E943A0315
:1002A0002A94F4CFF50137FC859137FE81915F01E7
:1002B000B60190E00E943A0321102A9421E0821AAC
:1002C00091088114910471F7E8C0843611F08936E1
:1002D00041F5F80137FE07C0608171818281938109
:1002E0000C5F1F4F08C060817181072E000C880BC6
:1002F000990B0E5F1F4FF32DFF763F2E97FF09C01E
:1003000090958095709561957F4F8F4F9F4FF068C6
:100310003F2E2AE030E0A3010E94DC02882E8618DE
:1003200045C0853731F4232D2F7EB22E2AE030E0F0
:1003300025C0932D997FB92E8F36C1F018F48835DA
:1003400079F0B5C0803719F0883721F0B0C0E92FB7
:10035000E061BE2EB4FE0DC0FB2DF460BF2E09C0BF
:1003600034FE0AC0292F2660B22E06C028E030E0F5
:1003700005C020E130E002C020E132E0F801B7FE24
:1003800007C060817181828193810C5F1F4F06C01D
:100390006081718180E090E00E5F1F4FA3010E9499
:1003A000DC02882E8618FB2DFF773F2E36FE0DC00F
:1003B000232D2E7FA22E891458F434FE0BC032FC5C
:1003C00009C0832D8E7EA82E05C0B82CA32C03C097
:1003D000B82C01C0B92CA4FE0FC0FE01E80DF11D20
:1003E0008081803321F49A2D997EA92E09C0A2FE26
:1003F00006C0B394B39404C08A2D867809F0B394F0
:10040000A3FC11C0A0FE06C0B21488F4280C922CE4
:100410009B180EC0B21460F4B60180E290E00E9416
:100420003A03B394F7CFB21418F42B1802C0982CE7
:10043000212CA4FE10C0B60180E390E00E943A0394
:10044000A2FE17C0A1FC03C088E790E002C088E5C7
:1004500090E0B6010CC08A2D867859F0A1FE02C04A
:100460008BE201C080E2A7FC8DE2B60190E00E9421
:100470003A03891438F4B60180E390E00E943A030D
:100480009A94F7CF8A94F301E80DF11D8081B601AB
:1004900090E00E943A038110F5CF222009F442CE69
:1004A000B60180E290E00E943A032A94F6CFF6016A
:1004B0008681978102C08FEF9FEF2B96E2E10C942B
:0204C000D9035E
:1004C200CF93DF93CDB7DEB7C05DD740CDBFDEBFE0
:1004D2000E9407040E94A60381E0809308060E94FE
:1004E2007603E0E4F1E082898160828B8089806713
:1004F200808B80898E7F808BE0E5F0E08081897F30
:10050200808300E010E00F2EE12CF6E0FF2EF02DAC
:10051200DD24D3940E9454048823E9F0F701D386A2
:10052200808991898093002890930128083EF3E006
:100532001F07D8F58091002890910128F801EE0F4D
:10054200FF1F21E030E02C0F3D1FE20FF31F8083DD
:1005520091830F5F1F4F81E493E00197F1F7000051
:10056200083E93E01907B0F28E010F5F1F4F6E0134
:10057200EFE2CE1AE8EFDE0A0F2EF4EBEF2EF8E4EC
:10058200FF2EF02DF801808191810E5F1F4F9F9306
:100592008F93FF92EF920E94F1030F900F900F90B2
:1005A2000F900C151D0571F7FFCF81E493E00197C1
:0605B200F1F70000D9CFB3
:1005B800FA01AA27283051F1203181F1E8946F938C
:1005C8006E7F6E5F7F4F8F4F9F4FAF4FB1E03ED032
:1005D800B4E03CD0670F781F891F9A1FA11D680FD0
:1005E800791F8A1F911DA11D6A0F711D811D911D03
:1005F800A11D20D009F468943F912AE0269F112478
:100608003019305D3193DEF6CF010895462F4770DB
:10061800405D4193B3E00FD0C9F7F6CF462F4F7036
:10062800405D4A3318F0495D31FD4052419302D094
:10063800A9F7EACFB4E0A69597958795779567953A
:10064800BA95C9F700976105710508959B01AC013A
:100658000A2E06945795479537952795BA95C9F761
:0C066800620F731F841F951FA01D0895D2
:100674000F931F93CF93DF93FB01238121FD03C0CD
:100684008FEF9FEF2CC022FF16C046815781248133
:1006940035814217530744F4A081B1819D012F5F36
:1006A4003F4F208331838C93268137812F5F3F4FC7
:1006B4002683378314C08B01EC01FB010084F18590
:1006C400E02D0995892BE1F6D80116968D919C9120
:1006D4001797019616968D939C931797CE01DF91E9
:0806E400CF911F910F910895C1
:1006EC00CF93DF9360917C006E7F70E08CE790E09D
:1006FC000E944904E0E6F0E0838186FDFDCFC0E670
:10070C00D0E06C8D6B7F70E08CE790E00E94490428
:10071C006C8D616070E08CE790E00E944904E0E42D
:10072C00F1E081818111FDCFE0E4F1E082E087838B
:10073C0081E08583828B81E7808BDF91CF91089557
:10074C00E0E8F4E08089887F808B80898460808BEE
:10075C008089877F808B80E28093A000E0E0F6E0C8
:10076C0083E0828381E0808388E08683808182605D
:04077C0080830895D9
:100780002F923F924F925F926F927F928F929F92A1
:10079000AF92BF92CF92DF92EF92FF920F931F938F
:1007A000CF93DF93CDB7DEB7CA1BDB0BCDBFDEBF68
:0207B0000994AA
:1007B2002A88398848885F846E847D848C849B84EF
:1007C200AA84B984C884DF80EE80FD800C811B81FD
:1007D200AA81B981CE0FD11DCDBFDEBFED01089533
:1007E200A0E0B0E0E7EFF3E00C94D003AE014B5F82
:1007F2005F4FFA0161917191AF018091042890914C
:0C08020005280E948000E2E00C94E9034D
:10080E00E0E0F4E0808181608083E0E0F8E08DE656
:10081E0095E08087918786818064868388E098E260
:0A082E008093042890930528089594
:100838001F920F920FB60F9211248F9381E080932D
:0E08480053018F910F900FBE0F901F901895C7
:10085600FC010590615070400110D8F78095909585
:060866008E0F9F1F089594
:10086C00FC016150704001900110D8F78095909573
:06087C008E0F9F1F08957E
:10088200E0E0F8E0948195FFFDCF8093020808959F
:0C089200DC0128ED209334006C930895E5
:0A089E000E94410480E090E00895FC
:0808A80080910B068170089598
:0408B0000C940000A4
:0408B40025753B006B
:0E08B80000000002000000004F0400000000DD
:00000001FF
