:100000000C9453000C9499000C9499000C94990052
:100010000C9499000C9499000C9499000C949900FC
:100020000C9499000C9499000C9499000C949900EC
:100030000C9499000C9499000C9499000C949900DC
:100040000C9499000C9499000C9499000C949900CC
:100050000C9499000C9499000C9499000C949900BC
:100060000C9499000C9499000C9499000C949900AC
:100070000C9499000C9499000C9499000C9499009C
:100080000C9499000C9499000C9499000C9499008C
:100090000C9499000C9499000C9499000C9499007C
:1000A00028002801800011241FBECFEFCDBFDFE361
:1000B000DEBFE0EAF0E040E017C0B591A5913591D0
:1000C0002591059107FD0CC095918591EF01F92FC0
:1000D000E82F05900D92A217B307D9F7FE0104C0CF
:1000E0001D92A217B307E1F7E53AF40731F70E9432
:0A00F0007D000C947B00F894FFCF14
:1000FA00E0EAF4E080E2818380E4828320E2A0E502
:10010A00B0E090910028808586FF02C0258301C057
:10011A0026839923C1F38C9181608C937894889576
:08012A008C918E7F8C93EDCFC8
:040132000C94000029
:00000001FF
