:100000000C9453000C9448020C9448020C9448023F
:100010000C94C1000C9448020C9448020C944802C1
:100020000C9448020C9448020C9448020C94480228
:100030000C9448020C9448020C9448020C94480218
:100040000C9448020C9448020C9448020C94480208
:100050000C9448020C9448020C947D000C944802C5
:100060000C9448020C9448020C9448020C944802E8
:100070000C9448020C9448020C9448020C944802D8
:100080000C9448020C9448020C9448020C944802C8
:100090000C9448020C9448020C9448020C944802B8
:1000A0002800280A800011241FBECFEFCDBFDFE358
:1000B000DEBFE0EAF0E040E017C0B591A5913591D0
:1000C0002591059107FD0CC095918591EF01F92FC0
:1000D000E82F05900D92A217B307D9F7FE0104C0CF
:1000E0001D92A217B307E1F7E53AF40731F70E9432
:0A00F000F7000C947B00F894FFCF9A
:1000FA001F920F920FB60F9211242F933F934F9393
:10010A005F936F937F938F939F93AF93BF93EF9375
:10011A00FF9381E080930B060E944402882389F0B2
:10012A00E0E0F6E081E08387208931892093100698
:10013A00309311068387808991898093022890934E
:10014A000328E0E0F6E081E0838780899189809343
:10015A00022890930328FF91EF91BF91AF919F914D
:10016A008F917F916F915F914F913F912F910F9056
:08017A000FBE0F901F901895B5
:100182001F920F920FB60F9211242F933F934F930A
:100192005F936F937F938F939F93AF93BF93CF930D
:1001A200DF93EF93FF9381E08093530180910228C4
:1001B200909103280E942E02EC0184E80E945901CA
:1001C200CE010E941402FF91EF91DF91CF91BF9176
:1001D200AF919F918F917F916F915F914F913F91DD
:0C01E2002F910F900FBE0F901F901895EA
:1001EE000E942C010E94B1010E94D00181E08093F7
:1001FE00080680E80E9459018CE694E40E941402DD
:10020E0080EC0E94590181E794E40E941402E0E41C
:10021E00F1E082898160828B80898067808B808902
:10022E008E7F808BE0E5F0E08081897F80837894FB
:10023E00A0E4B1E0808181608083889580818E7F8B
:0A024E00808350968C915097F5CFF5
:10025800CF93DF9360917C006E7F8CE790E00E94E3
:100268003E02E0E6F0E0838186FDFDCFC0E6D0E007
:100278006C8D6B7F8CE790E00E943E026C8D616014
:100288008CE790E00E943E02E0E4F1E08181811178
:10029800FDCFE0E4F1E082E0878381E08583828B13
:0A02A80081E7808BDF91CF9108956C
:1002B200E4E4F4E090819F70282F207F922B9083BA
:1002C20090819D7F908390819160908300009081C6
:1002D2009E7F908332E43A95F1F700C020812F701F
:1002E20030E1839FC0011124822B80838081816051
:1002F2008083000080818E7F808383EF91E001976D
:08030200F1F700C000000895AE
:10030A00E4E4F4E090819F70282F207F922B908361
:10031A009081926090839081916090830000908197
:10032A009E7F908332E43A95F1F700C020812F70C6
:10033A0030E1839FC0011124822B808380818160F8
:10034A008083000080818E7F808383EF91E0019714
:08035A00F1F700C00000089556
:100362008FEF8093400487E893E10197F1F700C093
:10037200000082E00E94590188E20E9459018CE04B
:100382000E94590186E00E94590181E00E945901B0
:0E03920083EF91E00197F1F700C0000008959D
:1003A000E0E8F4E08089887F808B80898460808B9E
:1003B0008089877F808B80E28093A000E0E0F6E078
:1003C00083E0828381E0808388E08683808182600D
:0403D0008083089589
:1003D400BB27FB015527AA27880F991FAA1FA4171B
:1003E40010F0A41B83955051B9F7A05DAA3308F00F
:1003F400A95DA193009779F7B111B1931192CB0143
:040404000C9404024E
:10040800DC01FC01672F71917723E1F7329704C073
:100418007C916D9370836291AE17BF07C8F30895FE
:10042800CF93DF93EC018881882331F021960E94D5
:0E043800850189918111FBCFDF91CF9108954D
:10044600BB274A3031F4992322F4BDE29095819579
:060456009F4F0C94EB0126
:10045C004AE064E078E20E94230284E098E2089586
:10046C0052504D3A00546163686F6D65746572004B
:0C047C00DC0128ED209334006C930895FF
:0804880080910B0681700895BC
:040490000C940000C8
:00000001FF
