:100000000C9453000C94D5010C94D5010C94D5019B
:100010000C9461010C94D5010C94D5010C94D5017C
:100020000C94D5010C94D5010C94D5010C94D501F8
:100030000C94D5010C94D5010C94D5010C94D501E8
:100040000C94D5010C94D5010C94D5010C94D501D8
:100050000C94D5010C94D5010C94D5010C94D501C8
:100060000C94D5010C94D5010C94D5010C94D501B8
:100070000C94D5010C94D5010C94D5010C94D501A8
:100080000C94D5010C94D5010C94D5010C94D50198
:100090000C94D5010C94D5010C94D5010C94D50188
:1000A00028002808800011241FBECFEFCDBFDFE35A
:1000B000DEBFE0EAF0E040E017C0B591A5913591D0
:1000C0002591059107FD0CC095918591EF01F92FC0
:1000D000E82F05900D92A217B307D9F7FE0104C0CF
:1000E0001D92A217B307E1F7E53AF40731F70E9432
:0A00F0007D000C947B00F894FFCF14
:1000FA000E9417010E94440180E80E94BD008EE818
:10010A0093E40E94A50180EC0E94BD0083E993E478
:10011A000E94A501E0E4F1E082898160828B8089F6
:10012A008067808B80898E7F808BE0E5F0E080811C
:10013A00897F80837894C0E5D0E000E411E088816B
:10014A0081608883889588818E7F8883F801808979
:10015A0080FFF5CF80910028909101280E94BF016D
:10016A007C0184E80E94BD00C7010E94A501E7CF77
:10017A00E4E4F4E090819F70282F207F922B9083F3
:10018A0090819D7F908390819160908300C000C090
:10019A0090819E7F90833EED3A95F1F70000208191
:1001AA002F7030E1839FC0011124822B80838081CC
:1001BA008160808300C000C080818E7F808382E856
:0A01CA0096E00197F1F700C00895D8
:1001D400E4E4F4E090819F70282F207F922B908399
:1001E40090819260908390819160908300C000C060
:1001F40090819E7F90833EED3A95F1F70000208137
:100204002F7030E1839FC0011124822B8083808171
:100214008160808300C000C080818E7F808382E8FB
:0A02240096E00197F1F700C008957D
:10022E00CF93DF9360917C006E7F8CE790E00E940D
:10023E00CF01E0E6F0E0838186FDFDCFC0E6D0E0A1
:10024E006C8D6B7F8CE790E00E94CF016C8D6160AE
:10025E008CE790E00E94CF01E0E4F1E08181811112
:10026E00FDCFE0E4F1E082E0878381E08583828B3D
:0A027E0081E7808BDF91CF91089596
:100288008FEF809340048AE191E40197F1F700C071
:1002980082E00E94BD0088E20E94BD008CE00E94BE
:1002A800BD0086E00E94BD0081E00E94BD0082E89A
:0A02B80096E00197F1F700C00895E9
:1002C2001F920F920FB60F9211248F939F9381E08A
:1002D2008093530180910028909101280196809388
:1002E2000028909301289F918F910F900FBE0F903D
:0402F2001F901895AC
:1002F600BB27FB015527AA27880F991FAA1FA417FA
:1003060010F0A41B83955051B9F7A05DAA3308F0ED
:10031600A95DA193009779F7B111B1931192CB0121
:040326000C9495019D
:10032A00DC01FC01672F71917723E1F7329704C052
:10033A007C916D9370836291AE17BF07C8F30895DD
:10034A00CF93DF93EC018881882331F021960E94B4
:0E035A00EA0089918111FBCFDF91CF910895C8
:10036800BB274A3031F4992322F4BDE29095819558
:060378009F4F0C947C0174
:10037E004AE062E078E20E94B40182E098E20895D9
:10038E0052504D3A00546163686F6D65746572002A
:0C039E00DC0128ED209334006C930895DE
:0403AA000C940000AF
:00000001FF
