:100000000C9450000C9484000C9484000C94840094
:100010000C9484000C9484000C9484000C94840050
:100020000C9484000C9484000C9484000C94840040
:100030000C9484000C9484000C9484000C94840030
:100040000C9484000C9484000C9484000C94840020
:100050000C9484000C9484000C9484000C94840010
:100060000C9484000C9484000C9484000C94840000
:100070000C9484000C9484000C9484000C948400F0
:100080000C9484000C9484000C9484000C948400E0
:100090000C9484000C9484000C9484000C948400D0
:1000A00011241FBECFEFCDBFDFE3DEBF0E94730080
:0800B0000C945A00F894FFCFF4
:1000B8002FEF30E0281B3109121613063CF499E0A3
:1000C8009A95F1F7AD9821503109C9F7882331F095
:0E00D80099E09A95F1F7AD9A8150D1F708950D
:1000E60080E28093A104CFEFC1508C2F0E945C0068
:1000F600C111FACFCF5F8C2F0E945C00CF3FD1F7A2
:02010600F2CF36
:040108000C94000053
:00000001FF
