:100000000C9450000C946A000C946A000C946A00E2
:100010000C946A000C946A000C946A000C946A00B8
:100020000C946A000C946A000C946A000C946A00A8
:100030000C946A000C946A000C946A000C946A0098
:100040000C946A000C946A000C946A000C946A0088
:100050000C946A000C946A000C946A000C946A0078
:100060000C946A000C946A000C946A000C946A0068
:100070000C946A000C946A000C946A000C946A0058
:100080000C946A000C946A000C946A000C946A0048
:100090000C946A000C946A000C946A000C946A0038
:1000A00011241FBECFEFCDBFDFE3DEBF0E945C0097
:0800B0000C945A00F894FFCFF4
:1000B800E0EAF4E080E2818380E4828390E2808554
:0C00C80086FF02C09583FBCF9683F9CF22
:0400D4000C94000088
:00000001FF
