:100000000C9450000C94AC000C94AC000C94AC001C
:100010000C94AC000C94AC000C94AC000C94AC00B0
:100020000C94AC000C94AC000C94AC000C94AC00A0
:100030000C94AC000C94AC000C94AC000C94AC0090
:100040000C94AC000C94AC000C94AC000C94AC0080
:100050000C94AC000C94AC000C94AC000C94AC0070
:100060000C94AC000C94AC000C94AC000C94AC0060
:100070000C94AC000C94AC000C94AC000C94AC0050
:100080000C94AC000C94AC000C94AC000C94AC0040
:100090000C94AC000C94AC000C94AC000C94AC0030
:1000A00011241FBECFEFCDBFDFE3DEBF0E94900063
:0800B0000C945A00F894FFCFF4
:1000B800EF92FF920F931F93CF93DF938C017C01F4
:1000C800C0E0D0E006C0F70181917F010E949C004A
:1000D8002196F80101900020E9F73197E01BF10B18
:1000E800CE17DF0780F3DF91CF911F910F91FF901B
:0400F800EF900895E8
:1000FC00E0E0F4E080818D7F80838081816080836B
:10010C00E0E0F8E08DE695E0808791878681806459
:04011C008683089539
:100120000E947E0088E491E40E945C008AE191E4F0
:080130000197F1F700C0F6CFC2
:10013800E0E0F8E0948195FFFDCF809302080895F0
:0F01480048656C6C6F20576F726C64210D0A0054
:040158000C94000003
:00000001FF
