:100000000C9450000C9465000C9465000C946500F1
:100010000C9465000C9465000C9465000C946500CC
:100020000C9465000C9465000C9465000C946500BC
:100030000C9465000C9465000C9465000C946500AC
:100040000C9465000C9465000C9465000C9465009C
:100050000C9465000C9465000C9465000C9465008C
:100060000C9465000C9465000C9465000C9465007C
:100070000C9465000C9465000C9465000C9465006C
:100080000C9465000C9465000C9465000C9465005C
:100090000C9465000C9465000C9465000C9465004C
:1000A00011241FBECFEFCDBFDFE3DEBF0E945C0097
:0800B0000C945A00F894FFCFF4
:1000B800E0E4F4E0808181608083808184608083D3
:0200C800F9CF6E
:0400CA000C94000092
:00000001FF
