:100000000C9450000C948E000C948E000C948E0076
:100010000C948E000C948E000C948E000C948E0028
:100020000C948E000C948E000C948E000C948E0018
:100030000C948E000C948E000C948E000C948E0008
:100040000C948E000C948E000C948E000C948E00F8
:100050000C948E000C948E000C948E000C948E00E8
:100060000C948E000C948E000C948E000C948E00D8
:100070000C948E000C948E000C948E000C948E00C8
:100080000C948E000C948E000C948E000C948E00B8
:100090000C948E000C948E000C948E000C948E00A8
:1000A00011241FBECFEFCDBFDFE3DEBF0E9487006C
:0800B0000C945A00F894FFCFF4
:1000B800E0EBFAE08FEF90E8848795878081816094
:1000C8008083808182608083818180618183818156
:0600D8008760818308959A
:1000DE0088ED84BFE0E6F0E09BE0918384BF81E091
:0A00EE008083838180FDFDCF08951B
:1000F800E0E2F4E0808180628083E4E2F4E08081E1
:060108008062808308956F
:0E010E000E946F000E947C000E945C00FFCFE8
:04011C000C9400003F
:00000001FF
