:100000000C9450000C94AC000C94AC000C94AC001C
:100010000C94AC000C94AC000C94AC000C94AC00B0
:100020000C94AC000C94AC000C94AC000C94AC00A0
:100030000C94AC000C94AC000C94AC000C94AC0090
:100040000C94AC000C94AC000C94AC000C94AC0080
:100050000C94AC000C94AC000C94AC000C94AC0070
:100060000C94AC000C94AC000C94AC000C94AC0060
:100070000C94AC000C94AC000C94AC000C94AC0050
:100080000C94AC000C94AC000C94AC000C94AC0040
:100090000C94AC000C94AC000C94AC000C94AC0030
:1000A00011241FBECFEFCDBFDFE3DEBF0E945C0097
:0800B0000C945A00F894FFCFF4
:1000B800E0EAF4E080E2818380E48283D0E811E022
:1000C80091E00F2EF0EAEF2EF4E0FF2EF02DF7016D
:1000D800808586FBCC27C0F986FD11C0992329F0BD
:1000E80081E0113009F480E0182F113021F4DF3F4E
:1000F80031F0DF5F04C0111102C0D111D1508D2F32
:080108000E9488009C2FE3CF48
:10011000982F90958823E9F020E22093A50428E009
:100120002A95F1F78150D9F79923A9F080E28093BD
:10013000A6048FEF890F98E09A95F1F7982F8150D8
:100140009111F9CF089580E28093A6048FEF890F73
:08015000F2CF9111F8CF0895E0
:040158000C94000003
:00000001FF
