:100000000C9459000C946E040C946E040C946E04C1
:100010000C94C3030C946E040C946E040C946E0444
:100020000C946E040C946E040C946E040C946E0488
:100030000C946E040C946E040C946E040C946E0478
:100040000C946E040C946E040C946E040C946E0468
:100050000C946E040C946E040C946E040C946E0458
:100060000C946E040C946E040C946E040C946E0448
:100070000C946E040C94C2020C946E040C946E04E6
:100080000C946E040C946E040C946E040C946E0428
:100090000C946E040C946E040C946E040C946E0418
:1000A0002800280680280628140008E028142816AE
:1000B000800011241FBECFEFCDBFDFE3DEBFE0EA3B
:1000C000F0E040E017C0B591A591359125910591DB
:1000D00007FD0CC095918591EF01F92FE82F059050
:1000E0000D92A217B307D9F7FE0104C01D92A21703
:1000F000B307E1F7E13BF40731F70E9406030C94E4
:060100008100F894FFCF1E
:10010600ABE0B0E0E9E8F0E00C94E6036C017B01BB
:100116008A01FC0116821782838181FFCCC1CE0140
:1001260001963C01F6019381F70193FD859193FFBA
:1001360081917F01882309F4BAC1853239F493FD90
:10014600859193FF81917F01853229F4B60190E074
:100156000E948703E7CF912C212C312CFFE1F31568
:10016600D8F08B3279F038F4803279F08332A1F40A
:10017600232D20611DC08D3261F0803369F4232D5B
:10018600216016C0832D8260382EE32DE4603E2E5A
:100196002AC0F32DF8601DC037FC2DC020ED280FB6
:1001A6002A3040F08E32B9F436FC81C1232D20640A
:1001B600322E19C036FE06C08AE0989E200D112404
:1001C600922E11C0EAE02E9E200D1124222EF32D30
:1001D600F0623F2E08C08C3621F4832D8068382EBD
:1001E60002C0883641F4F70193FD859193FF819112
:1001F6007F018111B3CF982F9F7D9554933028F4BA
:100206000C5F1F4F9FE399830DC0833631F0833710
:1002160071F0833509F059C021C0F80180818983C6
:100226000E5F1F4F88248394912C530113C028011D
:10023600F2E04F0E511CF801A080B18036FE03C0DB
:10024600692D70E002C06FEF7FEFC5010E94500478
:100256004C018201F32DFF773F2E16C0280122E0C4
:10026600420E511CF801A080B18036FE03C0692DF4
:1002760070E002C06FEF7FEFC5010E9445044C019C
:10028600F32DF0683F2E820133FC1BC0822D90E0D7
:1002960088169906B0F4B60180E290E00E948703C2
:1002A6002A94F4CFF50137FC859137FE81915F01E1
:1002B600B60190E00E94870321102A9421E0821A59
:1002C60091088114910471F7E8C0843611F08936DB
:1002D60041F5F80137FE07C0608171818281938103
:1002E6000C5F1F4F08C060817181072E000C880BC0
:1002F600990B0E5F1F4FF32DFF763F2E97FF09C018
:1003060090958095709561957F4F8F4F9F4FF068C0
:100316003F2E2AE030E0A3010E946402882E861850
:1003260045C0853731F4232D2F7EB22E2AE030E0EA
:1003360025C0932D997FB92E8F36C1F018F48835D4
:1003460079F0B5C0803719F0883721F0B0C0E92FB1
:10035600E061BE2EB4FE0DC0FB2DF460BF2E09C0B9
:1003660034FE0AC0292F2660B22E06C028E030E0EF
:1003760005C020E130E002C020E132E0F801B7FE1E
:1003860007C060817181828193810C5F1F4F06C017
:100396006081718180E090E00E5F1F4FA3010E9493
:1003A6006402882E8618FB2DFF773F2E36FE0DC081
:1003B600232D2E7FA22E891458F434FE0BC032FC56
:1003C60009C0832D8E7EA82E05C0B82CA32C03C091
:1003D600B82C01C0B92CA4FE0FC0FE01E80DF11D1A
:1003E6008081803321F49A2D997EA92E09C0A2FE20
:1003F60006C0B394B39404C08A2D867809F0B394EA
:10040600A3FC11C0A0FE06C0B21488F4280C922CDE
:100416009B180EC0B21460F4B60180E290E00E9410
:100426008703B394F7CFB21418F42B1802C0982C94
:10043600212CA4FE10C0B60180E390E00E94870341
:10044600A2FE17C0A1FC03C088E790E002C088E5C1
:1004560090E0B6010CC08A2D867859F0A1FE02C044
:100466008BE201C080E2A7FC8DE2B60190E00E941B
:100476008703891438F4B60180E390E00E9487036D
:100486009A94F7CF8A94F301E80DF11D8081B601A5
:1004960090E00E9487038110F5CF222009F442CE16
:1004A600B60180E290E00E9487032A94F6CFF60117
:1004B6008681978102C08FEF9FEF2B96E2E10C9425
:0204C600170419
:1004C800FA01AA27283051F1203181F1E8946F937D
:1004D8006E7F6E5F7F4F8F4F9F4FAF4FB1E03ED023
:1004E800B4E03CD0670F781F891F9A1FA11D680FC1
:1004F800791F8A1F911DA11D6A0F711D811D911DF4
:10050800A11D20D009F468943F912AE0269F112468
:100518003019305D3193DEF6CF010895462F4770CC
:10052800405D4193B3E00FD0C9F7F6CF462F4F7027
:10053800405D4A3318F0495D31FD4052419302D085
:10054800A9F7EACFB4E0A69597958795779567952B
:10055800BA95C9F700976105710508959B01AC012B
:100568000A2E06945795479537952795BA95C9F752
:0C057800620F731F841F951FA01D0895C3
:100584001F920F920FB60F9211242F933F934F9304
:100594005F936F937F938F939F93AF93BF93EF93E7
:1005A400FF93E0EAF4E0818581878091500180FF28
:1005B40006C0E0E4F1E080898E7F808B14C08091D6
:1005C400142890911528892B49F010921428109220
:1005D400152886EC98E40E94470305C0E0E4F1E0A6
:1005E40080898160808BFF91EF91BF91AF919F9142
:1005F4008F917F916F915F914F913F912F910F90C8
:080604000FBE0F901F90189526
:10060C000E94FF03E0EAF4E080E2818380E48283CD
:10061C0083E0868BE0E4F1E082898160828B8089C3
:10062C008067808B80898E7F808BE0E5F0E0808115
:10063C00897F80837894C0E5D0E000E411E00F2E30
:10064C00FDECEF2EF8E4FF2EF02D8881816088837D
:10065C00889588818E7F8883F801808980FFF5CF0B
:10066C008091142890911528009779F39F938F937C
:10067C00FF92EF920E942F040F900F900F900F900B
:02068C00E4CFB9
:10068E00EF92FF920F931F93CF93DF93E091022887
:10069E00F0910328238121FF29C08C01D0E0C0E016
:1006AE0080E0E82E88E2F82EF80181918F018823F0
:1006BE0081F0D70112966D917C911397DB011896FC
:1006CE00ED91FC9119970995892B71F3DFEFCFEF1F
:1006DE00EBCF6091022870910328DB011896ED9103
:1006EE00FC9119978AE00995892B19F08FEF9FEFEE
:1006FE0002C08D2F9C2FCDB7DEB7E6E00C942304FD
:10070E000F931F93CF93DF93FB01238121FD03C032
:10071E008FEF9FEF2CC022FF16C046815781248198
:10072E0035814217530744F4A081B1819D012F5F9B
:10073E003F4F208331838C93268137812F5F3F4F2C
:10074E002683378314C08B01EC01FB010084F185F5
:10075E00E02D0995892BE1F6D80116968D919C9185
:10076E001797019616968D939C931797CE01DF914E
:08077E00CF911F910F91089526
:100786001F920F920FB60F9211248F939F93EF93A0
:10079600FF9381E080935301E0E2F4E08781806279
:1007A60087838091142890911528019680931428A8
:1007B60090931528FF91EF919F918F910F900FBE07
:0607C6000F901F90189532
:1007CC002F923F924F925F926F927F928F929F9255
:1007DC00AF92BF92CF92DF92EF92FF920F931F9343
:1007EC00CF93DF93CDB7DEB7CA1BDB0BCDBFDEBF1C
:0207FC0009945E
:1007FE00E0E0F4E080818D7F808380818160808362
:10080E00E0E0F8E08DE695E0808791878681806450
:10081E00868386E098E280930228909303280895B9
:10082E002A88398848885F846E847D848C849B8472
:10083E00AA84B984C884DF80EE80FD800C811B8180
:10084E00AA81B981CE0FD11DCDBFDEBFED010895B6
:10085E00A0E0B0E0E5E3F4E00C94F603AE014B5FEC
:10086E005F4FFA0161917191AF01809102289091D1
:0C087E0003280E948300E2E00C94270491
:10088A00FC010590615070400110D8F78095909551
:06089A008E0F9F1F089560
:1008A000FC016150704001900110D8F7809590953F
:0608B0008E0F9F1F08954A
:1008B600E0E0F8E0948195FFFDCF8093020808956B
:0C08C60052455345540D0025640D0A00F6
:0A08D2000E945B0480E090E00895AE
:0408DC000C94000078
:0E08E00000000002000000006904000000009B
:00000001FF
